{
  "contractName": "IPFS",
  "abi": [
    {
      "inputs": [],
      "stateMutability": "nonpayable",
      "type": "constructor"
    },
    {
      "inputs": [],
      "name": "ipfsHash",
      "outputs": [
        {
          "internalType": "string",
          "name": "",
          "type": "string"
        }
      ],
      "stateMutability": "view",
      "type": "function",
      "constant": true
    },
    {
      "inputs": [],
      "name": "owner",
      "outputs": [
        {
          "internalType": "address",
          "name": "",
          "type": "address"
        }
      ],
      "stateMutability": "view",
      "type": "function",
      "constant": true
    },
    {
      "inputs": [
        {
          "internalType": "string",
          "name": "_ipfsHash",
          "type": "string"
        }
      ],
      "name": "setIPFSHash",
      "outputs": [],
      "stateMutability": "nonpayable",
      "type": "function"
    },
    {
      "inputs": [],
      "name": "getIPFSHash",
      "outputs": [
        {
          "internalType": "string",
          "name": "",
          "type": "string"
        }
      ],
      "stateMutability": "view",
      "type": "function",
      "constant": true
    }
  ],
  "bytecode": "0x608060405234801561001057600080fd5b50600180546001600160a01b031916331790556104e8806100326000396000f3fe608060405234801561001057600080fd5b506004361061004c5760003560e01c806320b28ade146100515780638da5cb5b1461006f578063b8a76f541461009a578063c623674f146100af575b600080fd5b6100596100b7565b6040516100669190610254565b60405180910390f35b600154610082906001600160a01b031681565b6040516001600160a01b039091168152602001610066565b6100ad6100a83660046102b8565b610149565b005b6100596101c6565b6060600080546100c690610369565b80601f01602080910402602001604051908101604052809291908181526020018280546100f290610369565b801561013f5780601f106101145761010080835404028352916020019161013f565b820191906000526020600020905b81548152906001019060200180831161012257829003601f168201915b5050505050905090565b6001546001600160a01b031633146101b65760405162461bcd60e51b815260206004820152602660248201527f4f6e6c7920746865206f776e65722063616e20706572666f726d20746869732060448201526530b1ba34b7b760d11b606482015260840160405180910390fd5b60006101c282826103f2565b5050565b600080546101d390610369565b80601f01602080910402602001604051908101604052809291908181526020018280546101ff90610369565b801561024c5780601f106102215761010080835404028352916020019161024c565b820191906000526020600020905b81548152906001019060200180831161022f57829003601f168201915b505050505081565b600060208083528351808285015260005b8181101561028157858101830151858201604001528201610265565b506000604082860101526040601f19601f8301168501019250505092915050565b634e487b7160e01b600052604160045260246000fd5b6000602082840312156102ca57600080fd5b813567ffffffffffffffff808211156102e257600080fd5b818401915084601f8301126102f657600080fd5b813581811115610308576103086102a2565b604051601f8201601f19908116603f01168101908382118183101715610330576103306102a2565b8160405282815287602084870101111561034957600080fd5b826020860160208301376000928101602001929092525095945050505050565b600181811c9082168061037d57607f821691505b60208210810361039d57634e487b7160e01b600052602260045260246000fd5b50919050565b601f8211156103ed57600081815260208120601f850160051c810160208610156103ca5750805b601f850160051c820191505b818110156103e9578281556001016103d6565b5050505b505050565b815167ffffffffffffffff81111561040c5761040c6102a2565b6104208161041a8454610369565b846103a3565b602080601f831160018114610455576000841561043d5750858301515b600019600386901b1c1916600185901b1785556103e9565b600085815260208120601f198616915b8281101561048457888601518255948401946001909101908401610465565b50858210156104a25787850151600019600388901b60f8161c191681555b5050505050600190811b0190555056fea2646970667358221220b4adaef7f0007d78bbb6908e13f3f0bf28e338b2adef6e726303c6a3b752a18164736f6c63430008120033",
  "immutableReferences": {},
  "source": "// SPDX-License-Identifier: MIT\r\n\r\npragma solidity ^0.8.18;\r\n\r\ncontract IPFS {\r\n    string public ipfsHash;\r\n    address public owner;\r\n\r\n    constructor() {\r\n        owner = msg.sender;\r\n    }\r\n\r\n    function setIPFSHash(string memory _ipfsHash) public onlyOwner {\r\n        ipfsHash = _ipfsHash;\r\n    }\r\n\r\n    function getIPFSHash() public view returns (string memory) {\r\n        return ipfsHash;\r\n    }\r\n\r\n    modifier onlyOwner() {\r\n        require(msg.sender == owner, \"Only the owner can perform this action\");\r\n        _;\r\n    }\r\n}\r\n",
  "sourcePath": "C:\\Users\\Melby\\OneDrive\\Desktop\\Skole\\3rd Year\\Bachelor Project\\HealthCareApp\\ethereum\\contracts\\IPFS.sol",
  "compiler": {
    "name": "solc",
    "version": "0.8.18+commit.87f61d96.Emscripten.clang"
  },
  "schemaVersion": "3.4.13",
  "updatedAt": "2023-04-18T13:16:58.151Z",
  "networkType": "ethereum",
  "devdoc": {
    "kind": "dev",
    "methods": {},
    "version": 1
  },
  "userdoc": {
    "kind": "user",
    "methods": {},
    "version": 1
  }
}