{
  "contractName": "PatientContract",
  "abi": [
    {
      "inputs": [
        {
          "internalType": "contract IPFS",
          "name": "_ipfs",
          "type": "address"
        }
      ],
      "stateMutability": "nonpayable",
      "type": "constructor"
    },
    {
      "anonymous": false,
      "inputs": [
        {
          "indexed": true,
          "internalType": "uint256",
          "name": "dataId",
          "type": "uint256"
        },
        {
          "indexed": true,
          "internalType": "address",
          "name": "patient",
          "type": "address"
        },
        {
          "indexed": false,
          "internalType": "string",
          "name": "description",
          "type": "string"
        },
        {
          "indexed": false,
          "internalType": "uint256",
          "name": "timestamp",
          "type": "uint256"
        }
      ],
      "name": "MedicalDataSubmitted",
      "type": "event"
    },
    {
      "anonymous": false,
      "inputs": [
        {
          "indexed": true,
          "internalType": "bytes32",
          "name": "dataId",
          "type": "bytes32"
        },
        {
          "indexed": false,
          "internalType": "string",
          "name": "ipfsHash",
          "type": "string"
        },
        {
          "indexed": true,
          "internalType": "address",
          "name": "patient",
          "type": "address"
        }
      ],
      "name": "NewMedicalData",
      "type": "event"
    },
    {
      "anonymous": false,
      "inputs": [
        {
          "indexed": true,
          "internalType": "address",
          "name": "patientAddress",
          "type": "address"
        }
      ],
      "name": "PatientDataUploaded",
      "type": "event"
    },
    {
      "inputs": [
        {
          "internalType": "bytes32",
          "name": "",
          "type": "bytes32"
        }
      ],
      "name": "medicalData",
      "outputs": [
        {
          "internalType": "string",
          "name": "ipfsHash",
          "type": "string"
        },
        {
          "internalType": "address",
          "name": "patient",
          "type": "address"
        },
        {
          "internalType": "string",
          "name": "description",
          "type": "string"
        }
      ],
      "stateMutability": "view",
      "type": "function",
      "constant": true
    },
    {
      "inputs": [],
      "name": "owner",
      "outputs": [
        {
          "internalType": "address",
          "name": "",
          "type": "address"
        }
      ],
      "stateMutability": "view",
      "type": "function",
      "constant": true
    },
    {
      "inputs": [
        {
          "internalType": "address",
          "name": "",
          "type": "address"
        }
      ],
      "name": "trustedDoctors",
      "outputs": [
        {
          "internalType": "bool",
          "name": "",
          "type": "bool"
        }
      ],
      "stateMutability": "view",
      "type": "function",
      "constant": true
    },
    {
      "inputs": [],
      "name": "withdrawalAmount",
      "outputs": [
        {
          "internalType": "uint256",
          "name": "",
          "type": "uint256"
        }
      ],
      "stateMutability": "view",
      "type": "function",
      "constant": true
    },
    {
      "inputs": [
        {
          "internalType": "uint256[]",
          "name": "newData",
          "type": "uint256[]"
        },
        {
          "internalType": "address",
          "name": "patient",
          "type": "address"
        }
      ],
      "name": "addBloodPressureData",
      "outputs": [],
      "stateMutability": "nonpayable",
      "type": "function"
    },
    {
      "inputs": [
        {
          "internalType": "bytes32",
          "name": "dataId",
          "type": "bytes32"
        }
      ],
      "name": "getBloodPressureData",
      "outputs": [
        {
          "internalType": "uint256[]",
          "name": "",
          "type": "uint256[]"
        }
      ],
      "stateMutability": "view",
      "type": "function",
      "constant": true
    },
    {
      "inputs": [
        {
          "internalType": "address",
          "name": "doctor",
          "type": "address"
        }
      ],
      "name": "authorizeDoctor",
      "outputs": [],
      "stateMutability": "nonpayable",
      "type": "function"
    },
    {
      "inputs": [
        {
          "internalType": "address",
          "name": "doctor",
          "type": "address"
        }
      ],
      "name": "revokeDoctorAuthorization",
      "outputs": [],
      "stateMutability": "nonpayable",
      "type": "function"
    },
    {
      "inputs": [
        {
          "internalType": "uint256",
          "name": "amount",
          "type": "uint256"
        }
      ],
      "name": "setWithdrawalAmount",
      "outputs": [],
      "stateMutability": "nonpayable",
      "type": "function"
    },
    {
      "inputs": [],
      "name": "withdraw",
      "outputs": [],
      "stateMutability": "nonpayable",
      "type": "function"
    },
    {
      "inputs": [
        {
          "internalType": "bytes32",
          "name": "dataId",
          "type": "bytes32"
        },
        {
          "internalType": "address",
          "name": "doctor",
          "type": "address"
        },
        {
          "internalType": "bool",
          "name": "permission",
          "type": "bool"
        }
      ],
      "name": "setDoctorPermission",
      "outputs": [],
      "stateMutability": "nonpayable",
      "type": "function"
    },
    {
      "inputs": [
        {
          "internalType": "bytes32",
          "name": "dataId",
          "type": "bytes32"
        },
        {
          "internalType": "address",
          "name": "doctor",
          "type": "address"
        }
      ],
      "name": "isDoctorAuthorized",
      "outputs": [
        {
          "internalType": "bool",
          "name": "",
          "type": "bool"
        }
      ],
      "stateMutability": "view",
      "type": "function",
      "constant": true
    },
    {
      "inputs": [
        {
          "internalType": "string",
          "name": "ipfsHash",
          "type": "string"
        },
        {
          "internalType": "string",
          "name": "description",
          "type": "string"
        },
        {
          "internalType": "uint256[]",
          "name": "_bloodPressureData",
          "type": "uint256[]"
        }
      ],
      "name": "submitMedicalData",
      "outputs": [
        {
          "internalType": "bytes32",
          "name": "dataId",
          "type": "bytes32"
        }
      ],
      "stateMutability": "nonpayable",
      "type": "function"
    },
    {
      "inputs": [
        {
          "internalType": "bytes32",
          "name": "dataId",
          "type": "bytes32"
        },
        {
          "internalType": "address",
          "name": "doctor",
          "type": "address"
        },
        {
          "internalType": "bool",
          "name": "permission",
          "type": "bool"
        }
      ],
      "name": "givePermission",
      "outputs": [],
      "stateMutability": "nonpayable",
      "type": "function"
    },
    {
      "inputs": [
        {
          "internalType": "bytes32",
          "name": "dataId",
          "type": "bytes32"
        },
        {
          "internalType": "address",
          "name": "doctor",
          "type": "address"
        }
      ],
      "name": "viewDoctorFeedback",
      "outputs": [
        {
          "internalType": "string",
          "name": "",
          "type": "string"
        }
      ],
      "stateMutability": "view",
      "type": "function",
      "constant": true
    },
    {
      "inputs": [
        {
          "internalType": "bytes32",
          "name": "dataId",
          "type": "bytes32"
        }
      ],
      "name": "viewAllFeedback",
      "outputs": [
        {
          "components": [
            {
              "internalType": "address",
              "name": "doctor",
              "type": "address"
            },
            {
              "internalType": "uint256",
              "name": "timestamp",
              "type": "uint256"
            },
            {
              "internalType": "string",
              "name": "feedback",
              "type": "string"
            },
            {
              "internalType": "string",
              "name": "ipfsHash",
              "type": "string"
            }
          ],
          "internalType": "struct PatientContract.DoctorFeedback[]",
          "name": "",
          "type": "tuple[]"
        }
      ],
      "stateMutability": "view",
      "type": "function",
      "constant": true
    },
    {
      "inputs": [
        {
          "internalType": "bytes32",
          "name": "dataId",
          "type": "bytes32"
        },
        {
          "internalType": "string",
          "name": "feedback",
          "type": "string"
        },
        {
          "internalType": "string",
          "name": "feedbackHash",
          "type": "string"
        }
      ],
      "name": "submitDoctorFeedback",
      "outputs": [],
      "stateMutability": "nonpayable",
      "type": "function"
    },
    {
      "inputs": [
        {
          "internalType": "bytes32",
          "name": "dataId",
          "type": "bytes32"
        },
        {
          "internalType": "address",
          "name": "doctor",
          "type": "address"
        }
      ],
      "name": "payDoctor",
      "outputs": [],
      "stateMutability": "payable",
      "type": "function",
      "payable": true
    }
  ],
  "bytecode": "0x608060405234801561001057600080fd5b50604051611ab8380380611ab883398101604081905261002f91610062565b60008054336001600160a01b031991821617909155600580549091166001600160a01b0392909216919091179055610092565b60006020828403121561007457600080fd5b81516001600160a01b038116811461008b57600080fd5b9392505050565b611a17806100a16000396000f3fe6080604052600436106101095760003560e01c80637724045911610095578063a917418a11610064578063a917418a146102fc578063d77fa8c21461030f578063dbf4560f1461034f578063e6e268f41461037d578063fb99e4511461039357600080fd5b8063772404591461024a57806388a05de51461026a5780638da5cb5b1461029757806394720614146102cf57600080fd5b80633ccfd60b116100dc5780633ccfd60b146101a657806358c9202c146101bb5780635ff585e5146101db57806360b1623c1461020a57806362168b871461022a57600080fd5b8063168ee33a1461010e57806328f1dcf5146101305780632952e15d146101505780632b95c5fa14610186575b600080fd5b34801561011a57600080fd5b5061012e610129366004611319565b6103b3565b005b34801561013c57600080fd5b5061012e61014b36600461134e565b6103eb565b34801561015c57600080fd5b5061017061016b366004611319565b6104b9565b60405161017d9190611393565b60405180910390f35b34801561019257600080fd5b5061012e6101a13660046113d7565b6105c3565b3480156101b257600080fd5b5061012e61060e565b3480156101c757600080fd5b5061012e6101d63660046113d7565b61071b565b3480156101e757600080fd5b506101fb6101f6366004611319565b61076c565b60405161017d9392919061143f565b34801561021657600080fd5b5061012e610225366004611534565b6108ad565b34801561023657600080fd5b5061012e610245366004611621565b6109d0565b34801561025657600080fd5b5061012e61026536600461134e565b610aac565b34801561027657600080fd5b5061028a61028536600461166f565b610b3d565b60405161017d9190611692565b3480156102a357600080fd5b506000546102b7906001600160a01b031681565b6040516001600160a01b03909116815260200161017d565b3480156102db57600080fd5b506102ef6102ea366004611319565b610c6c565b60405161017d91906116a5565b61012e61030a36600461166f565b610f47565b34801561031b57600080fd5b5061033f61032a3660046113d7565b60016020526000908152604090205460ff1681565b604051901515815260200161017d565b34801561035b57600080fd5b5061036f61036a36600461174c565b611038565b60405190815260200161017d565b34801561038957600080fd5b5061036f60035481565b34801561039f57600080fd5b5061033f6103ae36600461166f565b6111bc565b6000546001600160a01b031633146103e65760405162461bcd60e51b81526004016103dd906117ca565b60405180910390fd5b600355565b60008381526002602090815260408083206001600160a01b0386168452600401909152902054610100900460ff166104805760405162461bcd60e51b815260206004820152603260248201527f5468697320646f63746f7220646f6573206e6f742068617665207065726d697360448201527173696f6e20666f722074686973206461746160701b60648201526084016103dd565b60009283526002602090815260408085206001600160a01b03949094168552600490930190529120805460ff1916911515919091179055565b6000546060906001600160a01b03163314806104ee57506000828152600260205260409020600101546001600160a01b031633145b6105605760405162461bcd60e51b815260206004820152603f60248201527f4f6e6c7920746865206f776e6572206f72207468652070617469656e7420636160448201527f6e20766965772074686520626c6f6f6420707265737375726520646174612e0060648201526084016103dd565b600082815260026020908152604091829020600301805483518184028101840190945280845290918301828280156105b757602002820191906000526020600020905b8154815260200190600101908083116105a3575b50505050509050919050565b6000546001600160a01b031633146105ed5760405162461bcd60e51b81526004016103dd906117ca565b6001600160a01b03166000908152600160205260409020805460ff19169055565b3360009081526001602052604090205460ff166106835760405162461bcd60e51b815260206004820152602d60248201527f4f6e6c792061207472757374656420646f63746f722063616e20706572666f7260448201526c36903a3434b99030b1ba34b7b760991b60648201526084016103dd565b6000600354116106df5760405162461bcd60e51b815260206004820152602160248201527f4e6f2066756e647320617661696c61626c6520666f72207769746864726177616044820152601b60fa1b60648201526084016103dd565b600380546000918290556040519091339183156108fc0291849190818181858888f19350505050158015610717573d6000803e3d6000fd5b5050565b6000546001600160a01b031633146107455760405162461bcd60e51b81526004016103dd906117ca565b6001600160a01b03166000908152600160208190526040909120805460ff19169091179055565b60026020526000908152604090208054819061078790611810565b80601f01602080910402602001604051908101604052809291908181526020018280546107b390611810565b80156108005780601f106107d557610100808354040283529160200191610800565b820191906000526020600020905b8154815290600101906020018083116107e357829003601f168201915b505050600184015460028501805494956001600160a01b0390921694919350915061082a90611810565b80601f016020809104026020016040519081016040528092919081815260200182805461085690611810565b80156108a35780601f10610878576101008083540402835291602001916108a3565b820191906000526020600020905b81548152906001019060200180831161088657829003601f168201915b5050505050905083565b33600090815260016020526040902054839060ff1680156108d357506108d381336111bc565b61093d5760405162461bcd60e51b815260206004820152603560248201527f4f6e6c79206120646f63746f722077697468207065726d697373696f6e20636160448201527437103832b93337b936903a3434b99030b1ba34b7b760591b60648201526084016103dd565b60408051608081018252338082524260208084019182528385018881526060850188905260008a815260028084528782209582526006909501909252949020835181546001600160a01b0319166001600160a01b03909116178155905160018201559251919291908201906109b29082611898565b50606082015160038201906109c79082611898565b50505050505050565b6000546001600160a01b03163314610a3e5760405162461bcd60e51b815260206004820152602b60248201527f4f6e6c7920746865206f776e65722063616e2061646420626c6f6f642070726560448201526a39b9bab932903230ba309760a91b60648201526084016103dd565b60005b8251811015610aa7576001600160a01b03821660009081526004602052604090208351849083908110610a7657610a76611958565b6020908102919091018101518254600181018455600093845291909220015580610a9f8161196e565b915050610a41565b505050565b60008381526002602090815260408083206001600160a01b0386168452600401909152902054610100900460ff166104805760405162461bcd60e51b815260206004820152602e60248201527f5468697320646f63746f72206973206e6f7420617574686f72697a656420746f60448201526d207669657720746865206461746160901b60648201526084016103dd565b6000828152600260205260409020600101546060906001600160a01b0316331480610b7057506001600160a01b03821633145b80610b975750600083815260026020908152604080832033845260040190915290205460ff165b610bb35760405162461bcd60e51b81526004016103dd90611995565b60008381526002602090815260408083206001600160a01b038616845260060190915290206003018054610be690611810565b80601f0160208091040260200160405190810160405280929190818152602001828054610c1290611810565b8015610c5f5780601f10610c3457610100808354040283529160200191610c5f565b820191906000526020600020905b815481529060010190602001808311610c4257829003601f168201915b5050505050905092915050565b6000818152600260205260409020600101546060906001600160a01b0316331480610cb35750600082815260026020908152604080832033845260040190915290205460ff165b610ccf5760405162461bcd60e51b81526004016103dd90611995565b600082815260026020526040812060050154908167ffffffffffffffff811115610cfb57610cfb61147d565b604051908082528060200260200182016040528015610d6057816020015b610d4d604051806080016040528060006001600160a01b031681526020016000815260200160608152602001606081525090565b815260200190600190039081610d195790505b50905060005b82811015610f3f576000858152600260205260408120600501805483908110610d9157610d91611958565b60009182526020808320909101548883526002808352604080852060609390931c8086526006909301845293849020845160808101865281546001600160a01b0316815260018201549481019490945290810180549295509293909290840191610dfa90611810565b80601f0160208091040260200160405190810160405280929190818152602001828054610e2690611810565b8015610e735780601f10610e4857610100808354040283529160200191610e73565b820191906000526020600020905b815481529060010190602001808311610e5657829003601f168201915b50505050508152602001600382018054610e8c90611810565b80601f0160208091040260200160405190810160405280929190818152602001828054610eb890611810565b8015610f055780601f10610eda57610100808354040283529160200191610f05565b820191906000526020600020905b815481529060010190602001808311610ee857829003601f168201915b505050505081525050838381518110610f2057610f20611958565b6020026020010181905250508080610f379061196e565b915050610d66565b509392505050565b610f5182826111bc565b610fb35760405162461bcd60e51b815260206004820152602d60248201527f4f6e6c7920616e20617574686f72697a656420646f63746f722063616e20726560448201526c18d95a5d99481c185e5b595b9d609a1b60648201526084016103dd565b600034116110035760405162461bcd60e51b815260206004820152601e60248201527f5061796d656e74206d7573742062652067726561746572207468616e2030000060448201526064016103dd565b6040516001600160a01b038216903480156108fc02916000818181858888f19350505050158015610aa7573d6000803e3d6000fd5b8251602080850191909120600081815260029092526040909120805461105d90611810565b1590506110ac5760405162461bcd60e51b815260206004820152601b60248201527f4d65646963616c206461746120616c726561647920657869737473000000000060448201526064016103dd565b6000818152600260205260409020806110c58682611898565b506001810180546001600160a01b03191633179055600281016110e88582611898565b5082516110fe90600383019060208601906112b9565b50604080518082018252600180825260208083019182523360008181526004870190925284822093518454935161ffff1990941690151561ff00191617610100931515939093029290921790925591517faffb0454a8002cecc2766838070cb9c042bc33602bd4eab5ed428acabb3d9ca79190a2336001600160a01b0316827f5ce83dc4186fe8438f370a033a2759f1f0b5109af4902b9ae3dfa4f79701bc5e876040516111ac9190611692565b60405180910390a3509392505050565b60008281526002602052604081206005015481805b828110156112ae5760008681526002602052604081206005018054839081106111fc576111fc611958565b906000526020600020015460601c9050856001600160a01b0316816001600160a01b0316148015611252575060008781526002602090815260408083206001600160a01b038a16845260040190915290205460ff165b8015611288575060008781526002602090815260408083206001600160a01b038a168452600401909152902054610100900460ff165b1561129b57826112978161196e565b9350505b50806112a68161196e565b9150506111d1565b501515949350505050565b8280548282559060005260206000209081019282156112f4579160200282015b828111156112f45782518255916020019190600101906112d9565b50611300929150611304565b5090565b5b808211156113005760008155600101611305565b60006020828403121561132b57600080fd5b5035919050565b80356001600160a01b038116811461134957600080fd5b919050565b60008060006060848603121561136357600080fd5b8335925061137360208501611332565b91506040840135801515811461138857600080fd5b809150509250925092565b6020808252825182820181905260009190848201906040850190845b818110156113cb578351835292840192918401916001016113af565b50909695505050505050565b6000602082840312156113e957600080fd5b6113f282611332565b9392505050565b6000815180845260005b8181101561141f57602081850181015186830182015201611403565b506000602082860101526020601f19601f83011685010191505092915050565b60608152600061145260608301866113f9565b6001600160a01b0385166020840152828103604084015261147381856113f9565b9695505050505050565b634e487b7160e01b600052604160045260246000fd5b604051601f8201601f1916810167ffffffffffffffff811182821017156114bc576114bc61147d565b604052919050565b600082601f8301126114d557600080fd5b813567ffffffffffffffff8111156114ef576114ef61147d565b611502601f8201601f1916602001611493565b81815284602083860101111561151757600080fd5b816020850160208301376000918101602001919091529392505050565b60008060006060848603121561154957600080fd5b83359250602084013567ffffffffffffffff8082111561156857600080fd5b611574878388016114c4565b9350604086013591508082111561158a57600080fd5b50611597868287016114c4565b9150509250925092565b600082601f8301126115b257600080fd5b8135602067ffffffffffffffff8211156115ce576115ce61147d565b8160051b6115dd828201611493565b92835284810182019282810190878511156115f757600080fd5b83870192505b84831015611616578235825291830191908301906115fd565b979650505050505050565b6000806040838503121561163457600080fd5b823567ffffffffffffffff81111561164b57600080fd5b611657858286016115a1565b92505061166660208401611332565b90509250929050565b6000806040838503121561168257600080fd5b8235915061166660208401611332565b6020815260006113f260208301846113f9565b60006020808301818452808551808352604092508286019150828160051b87010184880160005b8381101561173e57888303603f19018552815180516001600160a01b0316845287810151888501528681015160808886018190529061170d828701826113f9565b9150506060808301519250858203818701525061172a81836113f9565b9689019694505050908601906001016116cc565b509098975050505050505050565b60008060006060848603121561176157600080fd5b833567ffffffffffffffff8082111561177957600080fd5b611785878388016114c4565b9450602086013591508082111561179b57600080fd5b6117a7878388016114c4565b935060408601359150808211156117bd57600080fd5b50611597868287016115a1565b60208082526026908201527f4f6e6c7920746865206f776e65722063616e20706572666f726d20746869732060408201526530b1ba34b7b760d11b606082015260800190565b600181811c9082168061182457607f821691505b60208210810361184457634e487b7160e01b600052602260045260246000fd5b50919050565b601f821115610aa757600081815260208120601f850160051c810160208610156118715750805b601f850160051c820191505b818110156118905782815560010161187d565b505050505050565b815167ffffffffffffffff8111156118b2576118b261147d565b6118c6816118c08454611810565b8461184a565b602080601f8311600181146118fb57600084156118e35750858301515b600019600386901b1c1916600185901b178555611890565b600085815260208120601f198616915b8281101561192a5788860151825594840194600190910190840161190b565b50858210156119485787850151600019600388901b60f8161c191681555b5050505050600190811b01905550565b634e487b7160e01b600052603260045260246000fd5b60006001820161198e57634e487b7160e01b600052601160045260246000fd5b5060010190565b6020808252602c908201527f596f7520617265206e6f7420617574686f72697a656420746f2076696577207460408201526b68697320666565646261636b60a01b60608201526080019056fea2646970667358221220d1471fbd5f402ad1b17aaac0c796a60c6bc6b3accad7ea0be5d8a388f2531adf64736f6c63430008120033",
  "immutableReferences": {},
  "source": "// SPDX-License-Identifier: MIT\r\n\r\npragma solidity ^0.8.18;\r\n\r\nimport \"./IPFS.sol\";\r\n\r\ncontract PatientContract {\r\n    address public owner;\r\n    mapping (address => bool) public trustedDoctors;\r\n    mapping (bytes32 => MedicalData) public medicalData;\r\n    uint256 public withdrawalAmount;\r\n    mapping(address => uint256[]) private bloodPressureData;\r\n\r\n    IPFS  ipfs;\r\n\r\n    struct MedicalData {\r\n        string ipfsHash;\r\n        address patient;\r\n        string description;\r\n        uint256[] bloodPressureData;\r\n        mapping(address => DoctorPermissions) doctors;\r\n        bytes32[] authorizedDoctors;\r\n        mapping(address => DoctorFeedback) feedback;\r\n    }\r\n\r\n    struct DoctorPermissions {\r\n        bool permission;\r\n        bool hasPermission;\r\n    }\r\n\r\n    struct DoctorFeedback {\r\n        address doctor;\r\n        uint256 timestamp;\r\n        string feedback;\r\n        string ipfsHash;\r\n    }\r\n\r\n    event PatientDataUploaded(address indexed patientAddress);\r\n    event NewMedicalData(bytes32 indexed dataId, string ipfsHash, address indexed patient);\r\n    event MedicalDataSubmitted(uint256 indexed dataId, address indexed patient, string description, uint256 timestamp);\r\n\r\n    constructor(IPFS _ipfs) {\r\n        owner = msg.sender;\r\n        ipfs = _ipfs;\r\n    }\r\n\r\n    function addBloodPressureData(uint256[] memory newData, address patient) public {\r\n        require(msg.sender == owner, \"Only the owner can add blood pressure data.\");\r\n        for (uint256 i = 0; i < newData.length; i++) {\r\n            bloodPressureData[patient].push(newData[i]);\r\n        }\r\n    }\r\n\r\n    function getBloodPressureData(bytes32 dataId) public view returns (uint256[] memory) {\r\n        require(msg.sender == owner || msg.sender == medicalData[dataId].patient, \"Only the owner or the patient can view the blood pressure data.\");\r\n        return medicalData[dataId].bloodPressureData;\r\n    }\r\n\r\n    function authorizeDoctor(address doctor) public onlyOwner {\r\n        trustedDoctors[doctor] = true;\r\n    }\r\n\r\n    function revokeDoctorAuthorization(address doctor) public onlyOwner {\r\n        trustedDoctors[doctor] = false;\r\n    }\r\n\r\n    function setWithdrawalAmount(uint256 amount) public onlyOwner {\r\n        withdrawalAmount = amount;\r\n    }\r\n\r\n    function withdraw() public onlyTrustedDoctor {\r\n        require(withdrawalAmount > 0, \"No funds available for withdrawal\");\r\n        uint256 amount = withdrawalAmount;\r\n        withdrawalAmount = 0;\r\n        payable(msg.sender).transfer(amount);\r\n    }\r\n\r\n    modifier onlyOwner() {\r\n        require(msg.sender == owner, \"Only the owner can perform this action\");\r\n        _;\r\n    }\r\n\r\n    modifier onlyTrustedDoctor() {\r\n        require(trustedDoctors[msg.sender], \"Only a trusted doctor can perform this action\");\r\n        _;\r\n    }\r\n\r\n    modifier onlyDoctorWithPermission(bytes32 dataId) {\r\n        require(trustedDoctors[msg.sender] && isDoctorAuthorized(dataId, msg.sender), \"Only a doctor with permission can perform this action\");\r\n        _;\r\n    }\r\n\r\n    function setDoctorPermission(bytes32 dataId, address doctor, bool permission) public {\r\n        require(medicalData[dataId].doctors[doctor].hasPermission, \"This doctor does not have permission for this data\");\r\n        medicalData[dataId].doctors[doctor].permission = permission;\r\n    }\r\n\r\n    function isDoctorAuthorized(bytes32 dataId, address doctor) public view returns (bool) {\r\n        uint256 numDoctors = medicalData[dataId].authorizedDoctors.length;\r\n        uint256 authorizedDoctors = 0;\r\n        for (uint256 i = 0; i < numDoctors; i++) {\r\n            address authorizedDoctor = address(bytes20(medicalData[dataId].authorizedDoctors[i]));\r\n            if (authorizedDoctor == doctor && medicalData[dataId].doctors[doctor].permission && medicalData[dataId].doctors[doctor].hasPermission) {\r\n                authorizedDoctors++;\r\n            }\r\n        }\r\n        return authorizedDoctors > 0;\r\n    }\r\n\r\n    function submitMedicalData(string memory ipfsHash, string memory description, uint256[] memory _bloodPressureData) public returns (bytes32 dataId) {\r\n        dataId = keccak256(bytes(ipfsHash));\r\n        require(bytes(medicalData[dataId].ipfsHash).length == 0, \"Medical data already exists\");\r\n\r\n        MedicalData storage newData = medicalData[dataId];\r\n        newData.ipfsHash = ipfsHash;\r\n        newData.patient = msg.sender;\r\n        newData.description = description;\r\n        newData.bloodPressureData = _bloodPressureData;\r\n        newData.doctors[msg.sender] = DoctorPermissions(true, true);\r\n\r\n        emit PatientDataUploaded(msg.sender);\r\n        emit NewMedicalData(dataId, ipfsHash, msg.sender);\r\n\r\n        return dataId;\r\n    }\r\n\r\n    function givePermission(bytes32 dataId, address doctor, bool permission) public {\r\n        require(medicalData[dataId].doctors[doctor].hasPermission, \"This doctor is not authorized to view the data\");\r\n        medicalData[dataId].doctors[doctor].permission = permission;\r\n    }\r\n\r\n    function viewDoctorFeedback(bytes32 dataId, address doctor) public view returns (string memory) {\r\n        require(medicalData[dataId].patient == msg.sender || doctor == msg.sender || medicalData[dataId].doctors[msg.sender].permission,\r\n            \"You are not authorized to view this feedback\");\r\n        return medicalData[dataId].feedback[doctor].ipfsHash;\r\n    }\r\n\r\n    function viewAllFeedback(bytes32 dataId) public view returns (DoctorFeedback[] memory) {\r\n        require(medicalData[dataId].patient == msg.sender || medicalData[dataId].doctors[msg.sender].permission, \"You are not authorized to view this feedback\");\r\n        uint256 numDoctors = medicalData[dataId].authorizedDoctors.length;\r\n        DoctorFeedback[] memory feedbackArray = new DoctorFeedback[](numDoctors);\r\n        for (uint256 i = 0; i < numDoctors; i++) {\r\n            address doctor = address(bytes20(medicalData[dataId].authorizedDoctors[i]));\r\n            feedbackArray[i] = medicalData[dataId].feedback[doctor];\r\n        }\r\n        return feedbackArray;\r\n    }\r\n\r\n    function submitDoctorFeedback(bytes32 dataId, string memory feedback, string memory feedbackHash) public onlyDoctorWithPermission(dataId) {\r\n        medicalData[dataId].feedback[msg.sender] = DoctorFeedback(msg.sender, block.timestamp, feedback, feedbackHash);\r\n    }\r\n\r\n    function payDoctor(bytes32 dataId, address doctor) public payable {\r\n        require(isDoctorAuthorized(dataId, doctor), \"Only an authorized doctor can receive payment\");\r\n        require(msg.value > 0, \"Payment must be greater than 0\");\r\n        payable(doctor).transfer(msg.value);\r\n    }\r\n}\r\n\r\n",
  "sourcePath": "C:\\Users\\Melby\\OneDrive\\Desktop\\Skole\\3rd Year\\Bachelor Project\\HealthCareApp\\ethereum\\contracts\\PatientContract.sol",
  "compiler": {
    "name": "solc",
    "version": "0.8.18+commit.87f61d96.Emscripten.clang"
  },
  "schemaVersion": "3.4.13",
  "updatedAt": "2023-04-18T13:16:58.135Z",
  "networkType": "ethereum",
  "devdoc": {
    "kind": "dev",
    "methods": {},
    "version": 1
  },
  "userdoc": {
    "kind": "user",
    "methods": {},
    "version": 1
  }
}